{
  "_format": "hh-sol-artifact-1",
  "contractName": "GiveUkraineOrg",
  "sourceName": "contracts/GiveUkraine.sol",
  "abi": [
    {
      "inputs": [
        {
          "internalType": "string",
          "name": "_initNotRevealedURI",
          "type": "string"
        }
      ],
      "stateMutability": "nonpayable",
      "type": "constructor"
    },
    {
      "anonymous": false,
      "inputs": [
        {
          "indexed": true,
          "internalType": "address",
          "name": "owner",
          "type": "address"
        },
        {
          "indexed": true,
          "internalType": "address",
          "name": "approved",
          "type": "address"
        },
        {
          "indexed": true,
          "internalType": "uint256",
          "name": "tokenId",
          "type": "uint256"
        }
      ],
      "name": "Approval",
      "type": "event"
    },
    {
      "anonymous": false,
      "inputs": [
        {
          "indexed": true,
          "internalType": "address",
          "name": "owner",
          "type": "address"
        },
        {
          "indexed": true,
          "internalType": "address",
          "name": "operator",
          "type": "address"
        },
        {
          "indexed": false,
          "internalType": "bool",
          "name": "approved",
          "type": "bool"
        }
      ],
      "name": "ApprovalForAll",
      "type": "event"
    },
    {
      "anonymous": false,
      "inputs": [
        {
          "indexed": true,
          "internalType": "address",
          "name": "previousOwner",
          "type": "address"
        },
        {
          "indexed": true,
          "internalType": "address",
          "name": "newOwner",
          "type": "address"
        }
      ],
      "name": "OwnershipTransferred",
      "type": "event"
    },
    {
      "anonymous": false,
      "inputs": [
        {
          "indexed": true,
          "internalType": "address",
          "name": "from",
          "type": "address"
        },
        {
          "indexed": true,
          "internalType": "address",
          "name": "to",
          "type": "address"
        },
        {
          "indexed": true,
          "internalType": "uint256",
          "name": "tokenId",
          "type": "uint256"
        }
      ],
      "name": "Transfer",
      "type": "event"
    },
    {
      "inputs": [],
      "name": "BASE_EXTENSION",
      "outputs": [
        {
          "internalType": "string",
          "name": "",
          "type": "string"
        }
      ],
      "stateMutability": "view",
      "type": "function"
    },
    {
      "inputs": [],
      "name": "MAX_GIFTS",
      "outputs": [
        {
          "internalType": "uint256",
          "name": "",
          "type": "uint256"
        }
      ],
      "stateMutability": "view",
      "type": "function"
    },
    {
      "inputs": [],
      "name": "MAX_SUPPLY",
      "outputs": [
        {
          "internalType": "uint256",
          "name": "",
          "type": "uint256"
        }
      ],
      "stateMutability": "view",
      "type": "function"
    },
    {
      "inputs": [],
      "name": "MIN_DONATION_PER_NFT",
      "outputs": [
        {
          "internalType": "uint256",
          "name": "",
          "type": "uint256"
        }
      ],
      "stateMutability": "view",
      "type": "function"
    },
    {
      "inputs": [],
      "name": "UKRAINE_DONATION_ADDRESS",
      "outputs": [
        {
          "internalType": "address",
          "name": "",
          "type": "address"
        }
      ],
      "stateMutability": "view",
      "type": "function"
    },
    {
      "inputs": [
        {
          "internalType": "address",
          "name": "to",
          "type": "address"
        },
        {
          "internalType": "uint256",
          "name": "tokenId",
          "type": "uint256"
        }
      ],
      "name": "approve",
      "outputs": [],
      "stateMutability": "nonpayable",
      "type": "function"
    },
    {
      "inputs": [
        {
          "internalType": "address",
          "name": "owner",
          "type": "address"
        }
      ],
      "name": "balanceOf",
      "outputs": [
        {
          "internalType": "uint256",
          "name": "",
          "type": "uint256"
        }
      ],
      "stateMutability": "view",
      "type": "function"
    },
    {
      "inputs": [
        {
          "internalType": "uint256",
          "name": "",
          "type": "uint256"
        }
      ],
      "name": "baseURIs",
      "outputs": [
        {
          "internalType": "string",
          "name": "",
          "type": "string"
        }
      ],
      "stateMutability": "view",
      "type": "function"
    },
    {
      "inputs": [],
      "name": "donate",
      "outputs": [],
      "stateMutability": "payable",
      "type": "function"
    },
    {
      "inputs": [
        {
          "internalType": "uint256",
          "name": "_mintAmount",
          "type": "uint256"
        }
      ],
      "name": "donateAndMint",
      "outputs": [],
      "stateMutability": "payable",
      "type": "function"
    },
    {
      "inputs": [],
      "name": "freezeBaseURI",
      "outputs": [],
      "stateMutability": "nonpayable",
      "type": "function"
    },
    {
      "inputs": [
        {
          "internalType": "uint256",
          "name": "tokenId",
          "type": "uint256"
        }
      ],
      "name": "getApproved",
      "outputs": [
        {
          "internalType": "address",
          "name": "",
          "type": "address"
        }
      ],
      "stateMutability": "view",
      "type": "function"
    },
    {
      "inputs": [],
      "name": "giftedAmount",
      "outputs": [
        {
          "internalType": "uint256",
          "name": "",
          "type": "uint256"
        }
      ],
      "stateMutability": "view",
      "type": "function"
    },
    {
      "inputs": [
        {
          "internalType": "address",
          "name": "owner",
          "type": "address"
        },
        {
          "internalType": "address",
          "name": "operator",
          "type": "address"
        }
      ],
      "name": "isApprovedForAll",
      "outputs": [
        {
          "internalType": "bool",
          "name": "",
          "type": "bool"
        }
      ],
      "stateMutability": "view",
      "type": "function"
    },
    {
      "inputs": [
        {
          "internalType": "address[]",
          "name": "receivers",
          "type": "address[]"
        }
      ],
      "name": "mintGifts",
      "outputs": [],
      "stateMutability": "nonpayable",
      "type": "function"
    },
    {
      "inputs": [],
      "name": "name",
      "outputs": [
        {
          "internalType": "string",
          "name": "",
          "type": "string"
        }
      ],
      "stateMutability": "view",
      "type": "function"
    },
    {
      "inputs": [],
      "name": "notRevealedURI",
      "outputs": [
        {
          "internalType": "string",
          "name": "",
          "type": "string"
        }
      ],
      "stateMutability": "view",
      "type": "function"
    },
    {
      "inputs": [],
      "name": "owner",
      "outputs": [
        {
          "internalType": "address",
          "name": "",
          "type": "address"
        }
      ],
      "stateMutability": "view",
      "type": "function"
    },
    {
      "inputs": [
        {
          "internalType": "uint256",
          "name": "tokenId",
          "type": "uint256"
        }
      ],
      "name": "ownerOf",
      "outputs": [
        {
          "internalType": "address",
          "name": "",
          "type": "address"
        }
      ],
      "stateMutability": "view",
      "type": "function"
    },
    {
      "inputs": [],
      "name": "remainingSupply",
      "outputs": [
        {
          "internalType": "uint256",
          "name": "",
          "type": "uint256"
        }
      ],
      "stateMutability": "view",
      "type": "function"
    },
    {
      "inputs": [],
      "name": "renounceOwnership",
      "outputs": [],
      "stateMutability": "nonpayable",
      "type": "function"
    },
    {
      "inputs": [
        {
          "internalType": "uint256",
          "name": "_batch",
          "type": "uint256"
        }
      ],
      "name": "reveal",
      "outputs": [],
      "stateMutability": "nonpayable",
      "type": "function"
    },
    {
      "inputs": [
        {
          "internalType": "uint256",
          "name": "",
          "type": "uint256"
        }
      ],
      "name": "revealed",
      "outputs": [
        {
          "internalType": "bool",
          "name": "",
          "type": "bool"
        }
      ],
      "stateMutability": "view",
      "type": "function"
    },
    {
      "inputs": [
        {
          "internalType": "address",
          "name": "from",
          "type": "address"
        },
        {
          "internalType": "address",
          "name": "to",
          "type": "address"
        },
        {
          "internalType": "uint256",
          "name": "tokenId",
          "type": "uint256"
        }
      ],
      "name": "safeTransferFrom",
      "outputs": [],
      "stateMutability": "nonpayable",
      "type": "function"
    },
    {
      "inputs": [
        {
          "internalType": "address",
          "name": "from",
          "type": "address"
        },
        {
          "internalType": "address",
          "name": "to",
          "type": "address"
        },
        {
          "internalType": "uint256",
          "name": "tokenId",
          "type": "uint256"
        },
        {
          "internalType": "bytes",
          "name": "_data",
          "type": "bytes"
        }
      ],
      "name": "safeTransferFrom",
      "outputs": [],
      "stateMutability": "nonpayable",
      "type": "function"
    },
    {
      "inputs": [
        {
          "internalType": "address",
          "name": "operator",
          "type": "address"
        },
        {
          "internalType": "bool",
          "name": "approved",
          "type": "bool"
        }
      ],
      "name": "setApprovalForAll",
      "outputs": [],
      "stateMutability": "nonpayable",
      "type": "function"
    },
    {
      "inputs": [
        {
          "internalType": "uint256",
          "name": "_batch",
          "type": "uint256"
        },
        {
          "internalType": "string",
          "name": "_newBaseURI",
          "type": "string"
        }
      ],
      "name": "setBaseURI",
      "outputs": [],
      "stateMutability": "nonpayable",
      "type": "function"
    },
    {
      "inputs": [
        {
          "internalType": "string",
          "name": "_newNotRevealedURI",
          "type": "string"
        }
      ],
      "name": "setNotRevealedURI",
      "outputs": [],
      "stateMutability": "nonpayable",
      "type": "function"
    },
    {
      "inputs": [
        {
          "internalType": "bytes4",
          "name": "interfaceId",
          "type": "bytes4"
        }
      ],
      "name": "supportsInterface",
      "outputs": [
        {
          "internalType": "bool",
          "name": "",
          "type": "bool"
        }
      ],
      "stateMutability": "view",
      "type": "function"
    },
    {
      "inputs": [],
      "name": "symbol",
      "outputs": [
        {
          "internalType": "string",
          "name": "",
          "type": "string"
        }
      ],
      "stateMutability": "view",
      "type": "function"
    },
    {
      "inputs": [],
      "name": "tokenSupply",
      "outputs": [
        {
          "internalType": "uint256",
          "name": "",
          "type": "uint256"
        }
      ],
      "stateMutability": "view",
      "type": "function"
    },
    {
      "inputs": [
        {
          "internalType": "uint256",
          "name": "tokenId",
          "type": "uint256"
        }
      ],
      "name": "tokenURI",
      "outputs": [
        {
          "internalType": "string",
          "name": "",
          "type": "string"
        }
      ],
      "stateMutability": "view",
      "type": "function"
    },
    {
      "inputs": [
        {
          "internalType": "address",
          "name": "from",
          "type": "address"
        },
        {
          "internalType": "address",
          "name": "to",
          "type": "address"
        },
        {
          "internalType": "uint256",
          "name": "tokenId",
          "type": "uint256"
        }
      ],
      "name": "transferFrom",
      "outputs": [],
      "stateMutability": "nonpayable",
      "type": "function"
    },
    {
      "inputs": [
        {
          "internalType": "address",
          "name": "newOwner",
          "type": "address"
        }
      ],
      "name": "transferOwnership",
      "outputs": [],
      "stateMutability": "nonpayable",
      "type": "function"
    }
  ],
  "bytecode": "0x6101406040526000608081815260a082905260c082905260e0829052610100829052610120919091526200003890600e906006620001e1565b50600f805460ff1916905560006011553480156200005557600080fd5b506040516200277f3803806200277f83398101604081905262000078916200030e565b604080518082018252601081526f4769766520556b7261696e65204f726760801b60208083019182528351808501909452600684526547495645554160d01b908401528151919291620000ce916000916200027a565b508051620000e49060019060208401906200027a565b50505062000101620000fb6200011360201b60201c565b62000117565b6200010c8162000169565b5062000437565b3390565b600680546001600160a01b038381166001600160a01b0319831681179093556040519116919082907f8be0079c531659141344cd1fd0a4f28419497f9722a3daafe3b4186f6b6457e090600090a35050565b6006546001600160a01b03163314620001c85760405162461bcd60e51b815260206004820181905260248201527f4f776e61626c653a2063616c6c6572206973206e6f7420746865206f776e6572604482015260640160405180910390fd5b8051620001dd9060109060208401906200027a565b5050565b600183019183908215620002685791602002820160005b838211156200023757835183826101000a81548160ff0219169083151502179055509260200192600101602081600001049283019260010302620001f8565b8015620002665782816101000a81549060ff021916905560010160208160000104928301926001030262000237565b505b5062000276929150620002f7565b5090565b8280546200028890620003e4565b90600052602060002090601f016020900481019282620002ac576000855562000268565b82601f10620002c757805160ff191683800117855562000268565b8280016001018555821562000268579182015b8281111562000268578251825591602001919060010190620002da565b5b80821115620002765760008155600101620002f8565b6000602080838503121562000321578182fd5b82516001600160401b038082111562000338578384fd5b818501915085601f8301126200034c578384fd5b81518181111562000361576200036162000421565b604051601f8201601f19908116603f011681019083821181831017156200038c576200038c62000421565b816040528281528886848701011115620003a4578687fd5b8693505b82841015620003c75784840186015181850187015292850192620003a8565b82841115620003d857868684830101525b98975050505050505050565b600181811c90821680620003f957607f821691505b602082108114156200041b57634e487b7160e01b600052602260045260246000fd5b50919050565b634e487b7160e01b600052604160045260246000fd5b61233880620004476000396000f3fe6080604052600436106101f95760003560e01c80637824407f1161010d578063c2ca0ac5116100a0578063e7bc82081161006f578063e7bc82081461058c578063e985e9c5146105a1578063ed88c68e146105ea578063f2c4ce1e146105f2578063f2fde38b1461061257600080fd5b8063c2ca0ac514610506578063c87b56dd14610526578063da0239a614610546578063df3fdf001461055b57600080fd5b806395d89b41116100dc57806395d89b411461049c578063a0c70d69146104b1578063a22cb465146104c6578063b88d4fde146104e657600080fd5b80637824407f146104215780638491a73c146104365780638da5cb5b1461045e578063915642061461047c57600080fd5b806332cb6b0c1161019057806361a2bc011161015f57806361a2bc01146103975780636352211e146103b757806370a08231146103d7578063715018a6146103f7578063722503801461040c57600080fd5b806332cb6b0c1461032157806333cfcb9f1461033757806342842e0e1461035757806346e558b91461037757600080fd5b80630cae16ed116101cc5780630cae16ed146102af5780631b57190e146102d85780631fa4cc61146102ee57806323b872dd1461030157600080fd5b806301ffc9a7146101fe57806306fdde0314610233578063081812fc14610255578063095ea7b31461028d575b600080fd5b34801561020a57600080fd5b5061021e610219366004611f53565b610632565b60405190151581526020015b60405180910390f35b34801561023f57600080fd5b50610248610684565b60405161022a91906120c7565b34801561026157600080fd5b50610275610270366004611fbe565b610716565b6040516001600160a01b03909116815260200161022a565b34801561029957600080fd5b506102ad6102a8366004611eba565b6107b0565b005b3480156102bb57600080fd5b506102ca66558e71770a060081565b60405190815260200161022a565b3480156102e457600080fd5b506102ca60115481565b6102ad6102fc366004611fbe565b6108c6565b34801561030d57600080fd5b506102ad61031c366004611dcc565b610a09565b34801561032d57600080fd5b506102ca61613b81565b34801561034357600080fd5b506102ad610352366004611fd6565b610a3a565b34801561036357600080fd5b506102ad610372366004611dcc565b610b37565b34801561038357600080fd5b506102ad610392366004611ee3565b610b52565b3480156103a357600080fd5b5061021e6103b2366004611fbe565b610cdf565b3480156103c357600080fd5b506102756103d2366004611fbe565b610d09565b3480156103e357600080fd5b506102ca6103f2366004611d80565b610d80565b34801561040357600080fd5b506102ad610e07565b34801561041857600080fd5b50610248610e3d565b34801561042d57600080fd5b506102ca610ecb565b34801561044257600080fd5b5061027573165cd37b4c644c2921454429e7f9358d18a45e1481565b34801561046a57600080fd5b506006546001600160a01b0316610275565b34801561048857600080fd5b50610248610497366004611fbe565b610edb565b3480156104a857600080fd5b50610248610efa565b3480156104bd57600080fd5b506102ca602a81565b3480156104d257600080fd5b506102ad6104e1366004611e80565b610f09565b3480156104f257600080fd5b506102ad610501366004611e07565b610f18565b34801561051257600080fd5b506102ad610521366004611fbe565b610f4a565b34801561053257600080fd5b50610248610541366004611fbe565b611004565b34801561055257600080fd5b506102ca61125d565b34801561056757600080fd5b5061024860405180604001604052806005815260200164173539b7b760d91b81525081565b34801561059857600080fd5b506102ad611274565b3480156105ad57600080fd5b5061021e6105bc366004611d9a565b6001600160a01b03918216600090815260056020908152604080832093909416825291909152205460ff1690565b6102ad6112ad565b3480156105fe57600080fd5b506102ad61060d366004611f8b565b611319565b34801561061e57600080fd5b506102ad61062d366004611d80565b611356565b60006001600160e01b031982166380ac58cd60e01b148061066357506001600160e01b03198216635b5e139f60e01b145b8061067e57506301ffc9a760e01b6001600160e01b03198316145b92915050565b60606000805461069390612240565b80601f01602080910402602001604051908101604052809291908181526020018280546106bf90612240565b801561070c5780601f106106e15761010080835404028352916020019161070c565b820191906000526020600020905b8154815290600101906020018083116106ef57829003601f168201915b5050505050905090565b6000818152600260205260408120546001600160a01b03166107945760405162461bcd60e51b815260206004820152602c60248201527f4552433732313a20617070726f76656420717565727920666f72206e6f6e657860448201526b34b9ba32b73a103a37b5b2b760a11b60648201526084015b60405180910390fd5b506000908152600460205260409020546001600160a01b031690565b60006107bb82610d09565b9050806001600160a01b0316836001600160a01b031614156108295760405162461bcd60e51b815260206004820152602160248201527f4552433732313a20617070726f76616c20746f2063757272656e74206f776e656044820152603960f91b606482015260840161078b565b336001600160a01b0382161480610845575061084581336105bc565b6108b75760405162461bcd60e51b815260206004820152603860248201527f4552433732313a20617070726f76652063616c6c6572206973206e6f74206f7760448201527f6e6572206e6f7220617070726f76656420666f7220616c6c0000000000000000606482015260840161078b565b6108c183836113ee565b505050565b806000811161090a5760405162461bcd60e51b815260206004820152601060248201526f4d696e74206174206c6561737420312160801b604482015260640161078b565b61613b8161091760075490565b61092191906121b2565b11156109655760405162461bcd60e51b815260206004820152601360248201527245786365656473206d617820737570706c792160681b604482015260640161078b565b6109768266558e71770a06006121de565b803410156109c65760405162461bcd60e51b815260206004820152601760248201527f4e6f7420656e6f7567682045544820746f206d696e7421000000000000000000604482015260640161078b565b6729a2241af62c000047106109dd576109dd6112ad565b60005b83811015610a03576109f13361145c565b806109fb8161227b565b9150506109e0565b50505050565b610a13338261147c565b610a2f5760405162461bcd60e51b815260040161078b90612161565b6108c183838361156f565b6006546001600160a01b03163314610a645760405162461bcd60e51b815260040161078b9061212c565b8160068110610aae5760405162461bcd60e51b81526020600482015260166024820152754261746368206e756d626572206f766572666c6f772160501b604482015260640161078b565b600f5460ff1615610b015760405162461bcd60e51b815260206004820152601e60248201527f55524973206172652066726f7a656e2e2043616e2774207570646174652e0000604482015260640161078b565b8160088460068110610b2357634e487b7160e01b600052603260045260246000fd5b019080519060200190610a03929190611c36565b6108c183838360405180602001604052806000815250610f18565b6006546001600160a01b03163314610b7c5760405162461bcd60e51b815260040161078b9061212c565b8080610bbd5760405162461bcd60e51b815260206004820152601060248201526f4d696e74206174206c6561737420312160801b604482015260640161078b565b61613b81610bca60075490565b610bd491906121b2565b1115610c185760405162461bcd60e51b815260206004820152601360248201527245786365656473206d617820737570706c792160681b604482015260640161078b565b601154602a90610c299084906121b2565b1115610c705760405162461bcd60e51b815260206004820152601660248201527552616e206f7574206f66206769667420746f6b656e7360501b604482015260640161078b565b60005b82811015610a035760118054906000610c8b8361227b565b9190505550610ccd848483818110610cb357634e487b7160e01b600052603260045260246000fd5b9050602002016020810190610cc89190611d80565b61145c565b80610cd78161227b565b915050610c73565b600e8160068110610cef57600080fd5b60209182820401919006915054906101000a900460ff1681565b6000818152600260205260408120546001600160a01b03168061067e5760405162461bcd60e51b815260206004820152602960248201527f4552433732313a206f776e657220717565727920666f72206e6f6e657869737460448201526832b73a103a37b5b2b760b91b606482015260840161078b565b60006001600160a01b038216610deb5760405162461bcd60e51b815260206004820152602a60248201527f4552433732313a2062616c616e636520717565727920666f7220746865207a65604482015269726f206164647265737360b01b606482015260840161078b565b506001600160a01b031660009081526003602052604090205490565b6006546001600160a01b03163314610e315760405162461bcd60e51b815260040161078b9061212c565b610e3b600061170b565b565b60108054610e4a90612240565b80601f0160208091040260200160405190810160405280929190818152602001828054610e7690612240565b8015610ec35780601f10610e9857610100808354040283529160200191610ec3565b820191906000526020600020905b815481529060010190602001808311610ea657829003601f168201915b505050505081565b6000610ed660075490565b905090565b60088160068110610eeb57600080fd5b018054909150610e4a90612240565b60606001805461069390612240565b610f1433838361175d565b5050565b610f22338361147c565b610f3e5760405162461bcd60e51b815260040161078b90612161565b610a038484848461182c565b6006546001600160a01b03163314610f745760405162461bcd60e51b815260040161078b9061212c565b8060068110610fbe5760405162461bcd60e51b81526020600482015260166024820152754261746368206e756d626572206f766572666c6f772160501b604482015260640161078b565b6001600e8360068110610fe157634e487b7160e01b600052603260045260246000fd5b602091828204019190066101000a81548160ff0219169083151502179055505050565b6000818152600260205260409020546060906001600160a01b03166110635760405162461bcd60e51b8152602060048201526015602482015274546f6b656e20646f6573206e6f742065786973742160581b604482015260640161078b565b600061106e8361185f565b9050600e816006811061109157634e487b7160e01b600052603260045260246000fd5b602081049091015460ff601f9092166101000a90041661113e57601080546110b890612240565b80601f01602080910402602001604051908101604052809291908181526020018280546110e490612240565b80156111315780601f1061110657610100808354040283529160200191611131565b820191906000526020600020905b81548152906001019060200180831161111457829003601f168201915b5050505050915050919050565b60006008826006811061116157634e487b7160e01b600052603260045260246000fd5b01805461116d90612240565b80601f016020809104026020016040519081016040528092919081815260200182805461119990612240565b80156111e65780601f106111bb576101008083540402835291602001916111e6565b820191906000526020600020905b8154815290600101906020018083116111c957829003601f168201915b50505050509050600081511161120b5760405180602001604052806000815250611255565b806112158561186d565b60405180604001604052806005815260200164173539b7b760d91b81525060405160200161124593929190612047565b6040516020818303038152906040525b949350505050565b600061126860075490565b610ed69061613b6121fd565b6006546001600160a01b0316331461129e5760405162461bcd60e51b815260040161078b9061212c565b600f805460ff19166001179055565b60405160009073165cd37b4c644c2921454429e7f9358d18a45e149047908381818185875af1925050503d8060008114611303576040519150601f19603f3d011682016040523d82523d6000602084013e611308565b606091505b505090508061131657600080fd5b50565b6006546001600160a01b031633146113435760405162461bcd60e51b815260040161078b9061212c565b8051610f14906010906020840190611c36565b6006546001600160a01b031633146113805760405162461bcd60e51b815260040161078b9061212c565b6001600160a01b0381166113e55760405162461bcd60e51b815260206004820152602660248201527f4f776e61626c653a206e6577206f776e657220697320746865207a65726f206160448201526564647265737360d01b606482015260840161078b565b6113168161170b565b600081815260046020526040902080546001600160a01b0319166001600160a01b038416908117909155819061142382610d09565b6001600160a01b03167f8c5be1e5ebec7d5bd14f71427d1e84f3dd0314c0f7b2291e5b200ac8c7c3b92560405160405180910390a45050565b61146a600780546001019055565b6113168161147760075490565b611987565b6000818152600260205260408120546001600160a01b03166114f55760405162461bcd60e51b815260206004820152602c60248201527f4552433732313a206f70657261746f7220717565727920666f72206e6f6e657860448201526b34b9ba32b73a103a37b5b2b760a11b606482015260840161078b565b600061150083610d09565b9050806001600160a01b0316846001600160a01b0316148061153b5750836001600160a01b031661153084610716565b6001600160a01b0316145b8061125557506001600160a01b0380821660009081526005602090815260408083209388168352929052205460ff16611255565b826001600160a01b031661158282610d09565b6001600160a01b0316146115e65760405162461bcd60e51b815260206004820152602560248201527f4552433732313a207472616e736665722066726f6d20696e636f72726563742060448201526437bbb732b960d91b606482015260840161078b565b6001600160a01b0382166116485760405162461bcd60e51b8152602060048201526024808201527f4552433732313a207472616e7366657220746f20746865207a65726f206164646044820152637265737360e01b606482015260840161078b565b6116536000826113ee565b6001600160a01b038316600090815260036020526040812080546001929061167c9084906121fd565b90915550506001600160a01b03821660009081526003602052604081208054600192906116aa9084906121b2565b909155505060008181526002602052604080822080546001600160a01b0319166001600160a01b0386811691821790925591518493918716917fddf252ad1be2c89b69c2b068fc378daa952ba7f163c4a11628f55a4df523b3ef91a4505050565b600680546001600160a01b038381166001600160a01b0319831681179093556040519116919082907f8be0079c531659141344cd1fd0a4f28419497f9722a3daafe3b4186f6b6457e090600090a35050565b816001600160a01b0316836001600160a01b031614156117bf5760405162461bcd60e51b815260206004820152601960248201527f4552433732313a20617070726f766520746f2063616c6c657200000000000000604482015260640161078b565b6001600160a01b03838116600081815260056020908152604080832094871680845294825291829020805460ff191686151590811790915591519182527f17307eab39ab6107e8899845ad3d59bd9653f200f220920489ca2b5937696c31910160405180910390a3505050565b61183784848461156f565b611843848484846119a1565b610a035760405162461bcd60e51b815260040161078b906120da565b600061067e82611388611aae565b6060816118915750506040805180820190915260018152600360fc1b602082015290565b8160005b81156118bb57806118a58161227b565b91506118b49050600a836121ca565b9150611895565b60008167ffffffffffffffff8111156118e457634e487b7160e01b600052604160045260246000fd5b6040519080825280601f01601f19166020018201604052801561190e576020820181803683370190505b5090505b8415611255576119236001836121fd565b9150611930600a86612296565b61193b9060306121b2565b60f81b81838151811061195e57634e487b7160e01b600052603260045260246000fd5b60200101906001600160f81b031916908160001a905350611980600a866121ca565b9450611912565b610f14828260405180602001604052806000815250611ac1565b60006001600160a01b0384163b15611aa357604051630a85bd0160e11b81526001600160a01b0385169063150b7a02906119e590339089908890889060040161208a565b602060405180830381600087803b1580156119ff57600080fd5b505af1925050508015611a2f575060408051601f3d908101601f19168201909252611a2c91810190611f6f565b60015b611a89573d808015611a5d576040519150601f19603f3d011682016040523d82523d6000602084013e611a62565b606091505b508051611a815760405162461bcd60e51b815260040161078b906120da565b805181602001fd5b6001600160e01b031916630a85bd0160e11b149050611255565b506001949350505050565b6000611aba82846121ca565b9392505050565b611acb8383611af4565b611ad860008484846119a1565b6108c15760405162461bcd60e51b815260040161078b906120da565b6001600160a01b038216611b4a5760405162461bcd60e51b815260206004820181905260248201527f4552433732313a206d696e7420746f20746865207a65726f2061646472657373604482015260640161078b565b6000818152600260205260409020546001600160a01b031615611baf5760405162461bcd60e51b815260206004820152601c60248201527f4552433732313a20746f6b656e20616c7265616479206d696e74656400000000604482015260640161078b565b6001600160a01b0382166000908152600360205260408120805460019290611bd89084906121b2565b909155505060008181526002602052604080822080546001600160a01b0319166001600160a01b03861690811790915590518392907fddf252ad1be2c89b69c2b068fc378daa952ba7f163c4a11628f55a4df523b3ef908290a45050565b828054611c4290612240565b90600052602060002090601f016020900481019282611c645760008555611caa565b82601f10611c7d57805160ff1916838001178555611caa565b82800160010185558215611caa579182015b82811115611caa578251825591602001919060010190611c8f565b50611cb6929150611cba565b5090565b5b80821115611cb65760008155600101611cbb565b600067ffffffffffffffff80841115611cea57611cea6122d6565b604051601f8501601f19908116603f01168101908282118183101715611d1257611d126122d6565b81604052809350858152868686011115611d2b57600080fd5b858560208301376000602087830101525050509392505050565b80356001600160a01b0381168114611d5c57600080fd5b919050565b600082601f830112611d71578081fd5b611aba83833560208501611ccf565b600060208284031215611d91578081fd5b611aba82611d45565b60008060408385031215611dac578081fd5b611db583611d45565b9150611dc360208401611d45565b90509250929050565b600080600060608486031215611de0578081fd5b611de984611d45565b9250611df760208501611d45565b9150604084013590509250925092565b60008060008060808587031215611e1c578081fd5b611e2585611d45565b9350611e3360208601611d45565b925060408501359150606085013567ffffffffffffffff811115611e55578182fd5b8501601f81018713611e65578182fd5b611e7487823560208401611ccf565b91505092959194509250565b60008060408385031215611e92578182fd5b611e9b83611d45565b915060208301358015158114611eaf578182fd5b809150509250929050565b60008060408385031215611ecc578182fd5b611ed583611d45565b946020939093013593505050565b60008060208385031215611ef5578182fd5b823567ffffffffffffffff80821115611f0c578384fd5b818501915085601f830112611f1f578384fd5b813581811115611f2d578485fd5b8660208260051b8501011115611f41578485fd5b60209290920196919550909350505050565b600060208284031215611f64578081fd5b8135611aba816122ec565b600060208284031215611f80578081fd5b8151611aba816122ec565b600060208284031215611f9c578081fd5b813567ffffffffffffffff811115611fb2578182fd5b61125584828501611d61565b600060208284031215611fcf578081fd5b5035919050565b60008060408385031215611fe8578182fd5b82359150602083013567ffffffffffffffff811115612005578182fd5b61201185828601611d61565b9150509250929050565b60008151808452612033816020860160208601612214565b601f01601f19169290920160200192915050565b60008451612059818460208901612214565b84519083019061206d818360208901612214565b8451910190612080818360208801612214565b0195945050505050565b6001600160a01b03858116825284166020820152604081018390526080606082018190526000906120bd9083018461201b565b9695505050505050565b602081526000611aba602083018461201b565b60208082526032908201527f4552433732313a207472616e7366657220746f206e6f6e20455243373231526560408201527131b2b4bb32b91034b6b83632b6b2b73a32b960711b606082015260800190565b6020808252818101527f4f776e61626c653a2063616c6c6572206973206e6f7420746865206f776e6572604082015260600190565b60208082526031908201527f4552433732313a207472616e736665722063616c6c6572206973206e6f74206f6040820152701ddb995c881b9bdc88185c1c1c9bdd9959607a1b606082015260800190565b600082198211156121c5576121c56122aa565b500190565b6000826121d9576121d96122c0565b500490565b60008160001904831182151516156121f8576121f86122aa565b500290565b60008282101561220f5761220f6122aa565b500390565b60005b8381101561222f578181015183820152602001612217565b83811115610a035750506000910152565b600181811c9082168061225457607f821691505b6020821081141561227557634e487b7160e01b600052602260045260246000fd5b50919050565b600060001982141561228f5761228f6122aa565b5060010190565b6000826122a5576122a56122c0565b500690565b634e487b7160e01b600052601160045260246000fd5b634e487b7160e01b600052601260045260246000fd5b634e487b7160e01b600052604160045260246000fd5b6001600160e01b03198116811461131657600080fdfea26469706673582212205338f88c623afc24051e2806e5b322e512dd80f5b52cd1180a59005d0d46261764736f6c63430008040033",
  "linkReferences": {},
  "deployedLinkReferences": {}
}