{
  "_format": "hh-sol-artifact-1",
  "contractName": "GiveUkraineOrg",
  "sourceName": "contracts/GiveUkraine.sol",
  "abi": [
    {
      "inputs": [
        {
          "internalType": "string",
          "name": "_initContractURI",
          "type": "string"
        },
        {
          "internalType": "string",
          "name": "_initNotRevealedURI",
          "type": "string"
        }
      ],
      "stateMutability": "nonpayable",
      "type": "constructor"
    },
    {
      "anonymous": false,
      "inputs": [
        {
          "indexed": true,
          "internalType": "address",
          "name": "owner",
          "type": "address"
        },
        {
          "indexed": true,
          "internalType": "address",
          "name": "approved",
          "type": "address"
        },
        {
          "indexed": true,
          "internalType": "uint256",
          "name": "tokenId",
          "type": "uint256"
        }
      ],
      "name": "Approval",
      "type": "event"
    },
    {
      "anonymous": false,
      "inputs": [
        {
          "indexed": true,
          "internalType": "address",
          "name": "owner",
          "type": "address"
        },
        {
          "indexed": true,
          "internalType": "address",
          "name": "operator",
          "type": "address"
        },
        {
          "indexed": false,
          "internalType": "bool",
          "name": "approved",
          "type": "bool"
        }
      ],
      "name": "ApprovalForAll",
      "type": "event"
    },
    {
      "anonymous": false,
      "inputs": [
        {
          "indexed": true,
          "internalType": "address",
          "name": "previousOwner",
          "type": "address"
        },
        {
          "indexed": true,
          "internalType": "address",
          "name": "newOwner",
          "type": "address"
        }
      ],
      "name": "OwnershipTransferred",
      "type": "event"
    },
    {
      "anonymous": false,
      "inputs": [
        {
          "indexed": true,
          "internalType": "address",
          "name": "from",
          "type": "address"
        },
        {
          "indexed": true,
          "internalType": "address",
          "name": "to",
          "type": "address"
        },
        {
          "indexed": true,
          "internalType": "uint256",
          "name": "tokenId",
          "type": "uint256"
        }
      ],
      "name": "Transfer",
      "type": "event"
    },
    {
      "inputs": [],
      "name": "BASE_EXTENSION",
      "outputs": [
        {
          "internalType": "string",
          "name": "",
          "type": "string"
        }
      ],
      "stateMutability": "view",
      "type": "function"
    },
    {
      "inputs": [],
      "name": "MAX_GIFTS",
      "outputs": [
        {
          "internalType": "uint256",
          "name": "",
          "type": "uint256"
        }
      ],
      "stateMutability": "view",
      "type": "function"
    },
    {
      "inputs": [],
      "name": "MAX_SUPPLY",
      "outputs": [
        {
          "internalType": "uint256",
          "name": "",
          "type": "uint256"
        }
      ],
      "stateMutability": "view",
      "type": "function"
    },
    {
      "inputs": [],
      "name": "MIN_DONATION_PER_NFT",
      "outputs": [
        {
          "internalType": "uint256",
          "name": "",
          "type": "uint256"
        }
      ],
      "stateMutability": "view",
      "type": "function"
    },
    {
      "inputs": [],
      "name": "UKRAINE_DONATION_ADDRESS",
      "outputs": [
        {
          "internalType": "address",
          "name": "",
          "type": "address"
        }
      ],
      "stateMutability": "view",
      "type": "function"
    },
    {
      "inputs": [
        {
          "internalType": "address",
          "name": "to",
          "type": "address"
        },
        {
          "internalType": "uint256",
          "name": "tokenId",
          "type": "uint256"
        }
      ],
      "name": "approve",
      "outputs": [],
      "stateMutability": "nonpayable",
      "type": "function"
    },
    {
      "inputs": [
        {
          "internalType": "address",
          "name": "owner",
          "type": "address"
        }
      ],
      "name": "balanceOf",
      "outputs": [
        {
          "internalType": "uint256",
          "name": "",
          "type": "uint256"
        }
      ],
      "stateMutability": "view",
      "type": "function"
    },
    {
      "inputs": [
        {
          "internalType": "uint256",
          "name": "",
          "type": "uint256"
        }
      ],
      "name": "baseURIs",
      "outputs": [
        {
          "internalType": "string",
          "name": "",
          "type": "string"
        }
      ],
      "stateMutability": "view",
      "type": "function"
    },
    {
      "inputs": [],
      "name": "contractURI",
      "outputs": [
        {
          "internalType": "string",
          "name": "",
          "type": "string"
        }
      ],
      "stateMutability": "view",
      "type": "function"
    },
    {
      "inputs": [],
      "name": "donate",
      "outputs": [],
      "stateMutability": "payable",
      "type": "function"
    },
    {
      "inputs": [
        {
          "internalType": "uint256",
          "name": "_mintAmount",
          "type": "uint256"
        }
      ],
      "name": "donateAndMint",
      "outputs": [],
      "stateMutability": "payable",
      "type": "function"
    },
    {
      "inputs": [],
      "name": "freezeURI",
      "outputs": [],
      "stateMutability": "nonpayable",
      "type": "function"
    },
    {
      "inputs": [
        {
          "internalType": "uint256",
          "name": "tokenId",
          "type": "uint256"
        }
      ],
      "name": "getApproved",
      "outputs": [
        {
          "internalType": "address",
          "name": "",
          "type": "address"
        }
      ],
      "stateMutability": "view",
      "type": "function"
    },
    {
      "inputs": [],
      "name": "giftedAmount",
      "outputs": [
        {
          "internalType": "uint256",
          "name": "",
          "type": "uint256"
        }
      ],
      "stateMutability": "view",
      "type": "function"
    },
    {
      "inputs": [
        {
          "internalType": "address",
          "name": "owner",
          "type": "address"
        },
        {
          "internalType": "address",
          "name": "operator",
          "type": "address"
        }
      ],
      "name": "isApprovedForAll",
      "outputs": [
        {
          "internalType": "bool",
          "name": "",
          "type": "bool"
        }
      ],
      "stateMutability": "view",
      "type": "function"
    },
    {
      "inputs": [
        {
          "internalType": "address[]",
          "name": "receivers",
          "type": "address[]"
        }
      ],
      "name": "mintGifts",
      "outputs": [],
      "stateMutability": "nonpayable",
      "type": "function"
    },
    {
      "inputs": [],
      "name": "name",
      "outputs": [
        {
          "internalType": "string",
          "name": "",
          "type": "string"
        }
      ],
      "stateMutability": "view",
      "type": "function"
    },
    {
      "inputs": [],
      "name": "notRevealedURI",
      "outputs": [
        {
          "internalType": "string",
          "name": "",
          "type": "string"
        }
      ],
      "stateMutability": "view",
      "type": "function"
    },
    {
      "inputs": [],
      "name": "owner",
      "outputs": [
        {
          "internalType": "address",
          "name": "",
          "type": "address"
        }
      ],
      "stateMutability": "view",
      "type": "function"
    },
    {
      "inputs": [
        {
          "internalType": "uint256",
          "name": "tokenId",
          "type": "uint256"
        }
      ],
      "name": "ownerOf",
      "outputs": [
        {
          "internalType": "address",
          "name": "",
          "type": "address"
        }
      ],
      "stateMutability": "view",
      "type": "function"
    },
    {
      "inputs": [],
      "name": "remainingSupply",
      "outputs": [
        {
          "internalType": "uint256",
          "name": "",
          "type": "uint256"
        }
      ],
      "stateMutability": "view",
      "type": "function"
    },
    {
      "inputs": [],
      "name": "renounceOwnership",
      "outputs": [],
      "stateMutability": "nonpayable",
      "type": "function"
    },
    {
      "inputs": [
        {
          "internalType": "uint256",
          "name": "",
          "type": "uint256"
        }
      ],
      "name": "revealed",
      "outputs": [
        {
          "internalType": "bool",
          "name": "",
          "type": "bool"
        }
      ],
      "stateMutability": "view",
      "type": "function"
    },
    {
      "inputs": [
        {
          "internalType": "address",
          "name": "from",
          "type": "address"
        },
        {
          "internalType": "address",
          "name": "to",
          "type": "address"
        },
        {
          "internalType": "uint256",
          "name": "tokenId",
          "type": "uint256"
        }
      ],
      "name": "safeTransferFrom",
      "outputs": [],
      "stateMutability": "nonpayable",
      "type": "function"
    },
    {
      "inputs": [
        {
          "internalType": "address",
          "name": "from",
          "type": "address"
        },
        {
          "internalType": "address",
          "name": "to",
          "type": "address"
        },
        {
          "internalType": "uint256",
          "name": "tokenId",
          "type": "uint256"
        },
        {
          "internalType": "bytes",
          "name": "_data",
          "type": "bytes"
        }
      ],
      "name": "safeTransferFrom",
      "outputs": [],
      "stateMutability": "nonpayable",
      "type": "function"
    },
    {
      "inputs": [
        {
          "internalType": "address",
          "name": "operator",
          "type": "address"
        },
        {
          "internalType": "bool",
          "name": "approved",
          "type": "bool"
        }
      ],
      "name": "setApprovalForAll",
      "outputs": [],
      "stateMutability": "nonpayable",
      "type": "function"
    },
    {
      "inputs": [
        {
          "internalType": "uint256",
          "name": "_batch",
          "type": "uint256"
        },
        {
          "internalType": "string",
          "name": "_newBaseURI",
          "type": "string"
        }
      ],
      "name": "setBaseURI",
      "outputs": [],
      "stateMutability": "nonpayable",
      "type": "function"
    },
    {
      "inputs": [
        {
          "internalType": "string",
          "name": "_contractURINew",
          "type": "string"
        }
      ],
      "name": "setContractURI",
      "outputs": [],
      "stateMutability": "nonpayable",
      "type": "function"
    },
    {
      "inputs": [
        {
          "internalType": "string",
          "name": "_newNotRevealedURI",
          "type": "string"
        }
      ],
      "name": "setNotRevealedURI",
      "outputs": [],
      "stateMutability": "nonpayable",
      "type": "function"
    },
    {
      "inputs": [
        {
          "internalType": "bytes4",
          "name": "interfaceId",
          "type": "bytes4"
        }
      ],
      "name": "supportsInterface",
      "outputs": [
        {
          "internalType": "bool",
          "name": "",
          "type": "bool"
        }
      ],
      "stateMutability": "view",
      "type": "function"
    },
    {
      "inputs": [],
      "name": "symbol",
      "outputs": [
        {
          "internalType": "string",
          "name": "",
          "type": "string"
        }
      ],
      "stateMutability": "view",
      "type": "function"
    },
    {
      "inputs": [],
      "name": "tokenSupply",
      "outputs": [
        {
          "internalType": "uint256",
          "name": "",
          "type": "uint256"
        }
      ],
      "stateMutability": "view",
      "type": "function"
    },
    {
      "inputs": [
        {
          "internalType": "uint256",
          "name": "tokenId",
          "type": "uint256"
        }
      ],
      "name": "tokenURI",
      "outputs": [
        {
          "internalType": "string",
          "name": "",
          "type": "string"
        }
      ],
      "stateMutability": "view",
      "type": "function"
    },
    {
      "inputs": [
        {
          "internalType": "address",
          "name": "from",
          "type": "address"
        },
        {
          "internalType": "address",
          "name": "to",
          "type": "address"
        },
        {
          "internalType": "uint256",
          "name": "tokenId",
          "type": "uint256"
        }
      ],
      "name": "transferFrom",
      "outputs": [],
      "stateMutability": "nonpayable",
      "type": "function"
    },
    {
      "inputs": [
        {
          "internalType": "address",
          "name": "newOwner",
          "type": "address"
        }
      ],
      "name": "transferOwnership",
      "outputs": [],
      "stateMutability": "nonpayable",
      "type": "function"
    }
  ],
  "bytecode": "0x6101406040526000608081815260a082905260c082905260e0829052610100829052610120919091526200003890600f906006620002e7565b506010805460ff1916905560006012553480156200005557600080fd5b5060405162002930380380620029308339810160408190526200007891620004c7565b604080518082018252601081526f4769766520556b7261696e65204f726760801b60208083019182528351808501909452600684526547495645554160d01b908401528151919291620000ce9160009162000380565b508051620000e490600190602084019062000380565b50505062000101620000fb6200011f60201b60201c565b62000123565b6200010c8262000175565b620001178162000232565b505062000581565b3390565b600680546001600160a01b038381166001600160a01b0319831681179093556040519116919082907f8be0079c531659141344cd1fd0a4f28419497f9722a3daafe3b4186f6b6457e090600090a35050565b6006546001600160a01b03163314620001c45760405162461bcd60e51b815260206004820181905260248201526000805160206200291083398151915260448201526064015b60405180910390fd5b60105460ff1615620002195760405162461bcd60e51b815260206004820152601e60248201527f55524973206172652066726f7a656e2e2043616e2774207570646174652e00006044820152606401620001bb565b80516200022e90600890602084019062000380565b5050565b6006546001600160a01b031633146200027d5760405162461bcd60e51b81526020600482018190526024820152600080516020620029108339815191526044820152606401620001bb565b60105460ff1615620002d25760405162461bcd60e51b815260206004820152601e60248201527f55524973206172652066726f7a656e2e2043616e2774207570646174652e00006044820152606401620001bb565b80516200022e90601190602084019062000380565b6001830191839082156200036e5791602002820160005b838211156200033d57835183826101000a81548160ff0219169083151502179055509260200192600101602081600001049283019260010302620002fe565b80156200036c5782816101000a81549060ff02191690556001016020816000010492830192600103026200033d565b505b506200037c929150620003fd565b5090565b8280546200038e906200052e565b90600052602060002090601f016020900481019282620003b257600085556200036e565b82601f10620003cd57805160ff19168380011785556200036e565b828001600101855582156200036e579182015b828111156200036e578251825591602001919060010190620003e0565b5b808211156200037c5760008155600101620003fe565b600082601f83011262000425578081fd5b81516001600160401b03808211156200044257620004426200056b565b604051601f8301601f19908116603f011681019082821181831017156200046d576200046d6200056b565b8160405283815260209250868385880101111562000489578485fd5b8491505b83821015620004ac57858201830151818301840152908201906200048d565b83821115620004bd57848385830101525b9695505050505050565b60008060408385031215620004da578182fd5b82516001600160401b0380821115620004f1578384fd5b620004ff8683870162000414565b9350602085015191508082111562000515578283fd5b50620005248582860162000414565b9150509250929050565b600181811c908216806200054357607f821691505b602082108114156200056557634e487b7160e01b600052602260045260246000fd5b50919050565b634e487b7160e01b600052604160045260246000fd5b61237f80620005916000396000f3fe6080604052600436106102045760003560e01c80637824407f11610118578063c793803c116100a0578063e8a3d4851161006f578063e8a3d485146105ac578063e985e9c5146105c1578063ed88c68e1461060a578063f2c4ce1e14610612578063f2fde38b1461063257600080fd5b8063c793803c14610531578063c87b56dd14610546578063da0239a614610566578063df3fdf001461057b57600080fd5b8063938e3d7b116100e7578063938e3d7b146104a757806395d89b41146104c7578063a0c70d69146104dc578063a22cb465146104f1578063b88d4fde1461051157600080fd5b80637824407f1461042c5780638491a73c146104415780638da5cb5b14610469578063915642061461048757600080fd5b806332cb6b0c1161019b57806361a2bc011161016a57806361a2bc01146103a25780636352211e146103c257806370a08231146103e2578063715018a614610402578063722503801461041757600080fd5b806332cb6b0c1461032c57806333cfcb9f1461034257806342842e0e1461036257806346e558b91461038257600080fd5b80630cae16ed116101d75780630cae16ed146102ba5780631b57190e146102e35780631fa4cc61146102f957806323b872dd1461030c57600080fd5b806301ffc9a71461020957806306fdde031461023e578063081812fc14610260578063095ea7b314610298575b600080fd5b34801561021557600080fd5b50610229610224366004611f63565b610652565b60405190151581526020015b60405180910390f35b34801561024a57600080fd5b506102536106a4565b60405161023591906120d7565b34801561026c57600080fd5b5061028061027b366004611fce565b610736565b6040516001600160a01b039091168152602001610235565b3480156102a457600080fd5b506102b86102b3366004611eca565b6107d0565b005b3480156102c657600080fd5b506102d566558e71770a060081565b604051908152602001610235565b3480156102ef57600080fd5b506102d560125481565b6102b8610307366004611fce565b6108e6565b34801561031857600080fd5b506102b8610327366004611ddc565b610a29565b34801561033857600080fd5b506102d561613b81565b34801561034e57600080fd5b506102b861035d366004611fe6565b610a5a565b34801561036e57600080fd5b506102b861037d366004611ddc565b610b6f565b34801561038e57600080fd5b506102b861039d366004611ef3565b610b8a565b3480156103ae57600080fd5b506102296103bd366004611fce565b610d17565b3480156103ce57600080fd5b506102806103dd366004611fce565b610d41565b3480156103ee57600080fd5b506102d56103fd366004611d90565b610db8565b34801561040e57600080fd5b506102b8610e3f565b34801561042357600080fd5b50610253610e75565b34801561043857600080fd5b506102d5610f03565b34801561044d57600080fd5b5061028073165cd37b4c644c2921454429e7f9358d18a45e1481565b34801561047557600080fd5b506006546001600160a01b0316610280565b34801561049357600080fd5b506102536104a2366004611fce565b610f13565b3480156104b357600080fd5b506102b86104c2366004611f9b565b610f32565b3480156104d357600080fd5b50610253610f96565b3480156104e857600080fd5b506102d5602a81565b3480156104fd57600080fd5b506102b861050c366004611e90565b610fa5565b34801561051d57600080fd5b506102b861052c366004611e17565b610fb0565b34801561053d57600080fd5b506102b8610fe2565b34801561055257600080fd5b50610253610561366004611fce565b61101b565b34801561057257600080fd5b506102d5611274565b34801561058757600080fd5b5061025360405180604001604052806005815260200164173539b7b760d91b81525081565b3480156105b857600080fd5b5061025361128b565b3480156105cd57600080fd5b506102296105dc366004611daa565b6001600160a01b03918216600090815260056020908152604080832093909416825291909152205460ff1690565b6102b861129a565b34801561061e57600080fd5b506102b861062d366004611f9b565b611306565b34801561063e57600080fd5b506102b861064d366004611d90565b611366565b60006001600160e01b031982166380ac58cd60e01b148061068357506001600160e01b03198216635b5e139f60e01b145b8061069e57506301ffc9a760e01b6001600160e01b03198316145b92915050565b6060600080546106b390612287565b80601f01602080910402602001604051908101604052809291908181526020018280546106df90612287565b801561072c5780601f106107015761010080835404028352916020019161072c565b820191906000526020600020905b81548152906001019060200180831161070f57829003601f168201915b5050505050905090565b6000818152600260205260408120546001600160a01b03166107b45760405162461bcd60e51b815260206004820152602c60248201527f4552433732313a20617070726f76656420717565727920666f72206e6f6e657860448201526b34b9ba32b73a103a37b5b2b760a11b60648201526084015b60405180910390fd5b506000908152600460205260409020546001600160a01b031690565b60006107db82610d41565b9050806001600160a01b0316836001600160a01b031614156108495760405162461bcd60e51b815260206004820152602160248201527f4552433732313a20617070726f76616c20746f2063757272656e74206f776e656044820152603960f91b60648201526084016107ab565b336001600160a01b0382161480610865575061086581336105dc565b6108d75760405162461bcd60e51b815260206004820152603860248201527f4552433732313a20617070726f76652063616c6c6572206973206e6f74206f7760448201527f6e6572206e6f7220617070726f76656420666f7220616c6c000000000000000060648201526084016107ab565b6108e183836113fe565b505050565b806000811161092a5760405162461bcd60e51b815260206004820152601060248201526f4d696e74206174206c6561737420312160801b60448201526064016107ab565b61613b8161093760075490565b61094191906121f9565b11156109855760405162461bcd60e51b815260206004820152601360248201527245786365656473206d617820737570706c792160681b60448201526064016107ab565b6109968266558e71770a0600612225565b803410156109e65760405162461bcd60e51b815260206004820152601760248201527f4e6f7420656e6f7567682045544820746f206d696e742100000000000000000060448201526064016107ab565b6729a2241af62c000047106109fd576109fd61129a565b60005b83811015610a2357610a113361146c565b80610a1b816122c2565b915050610a00565b50505050565b610a33338261148c565b610a4f5760405162461bcd60e51b81526004016107ab906121a8565b6108e183838361157f565b6006546001600160a01b03163314610a845760405162461bcd60e51b81526004016107ab90612173565b8160068110610ace5760405162461bcd60e51b81526020600482015260166024820152754261746368206e756d626572206f766572666c6f772160501b60448201526064016107ab565b60105460ff1615610af15760405162461bcd60e51b81526004016107ab906120ea565b8160098460068110610b1357634e487b7160e01b600052603260045260246000fd5b019080519060200190610b27929190611c46565b506001600f8460068110610b4b57634e487b7160e01b600052603260045260246000fd5b602091828204019190066101000a81548160ff021916908315150217905550505050565b6108e183838360405180602001604052806000815250610fb0565b6006546001600160a01b03163314610bb45760405162461bcd60e51b81526004016107ab90612173565b8080610bf55760405162461bcd60e51b815260206004820152601060248201526f4d696e74206174206c6561737420312160801b60448201526064016107ab565b61613b81610c0260075490565b610c0c91906121f9565b1115610c505760405162461bcd60e51b815260206004820152601360248201527245786365656473206d617820737570706c792160681b60448201526064016107ab565b601254602a90610c619084906121f9565b1115610ca85760405162461bcd60e51b815260206004820152601660248201527552616e206f7574206f66206769667420746f6b656e7360501b60448201526064016107ab565b60005b82811015610a235760128054906000610cc3836122c2565b9190505550610d05848483818110610ceb57634e487b7160e01b600052603260045260246000fd5b9050602002016020810190610d009190611d90565b61146c565b80610d0f816122c2565b915050610cab565b600f8160068110610d2757600080fd5b60209182820401919006915054906101000a900460ff1681565b6000818152600260205260408120546001600160a01b03168061069e5760405162461bcd60e51b815260206004820152602960248201527f4552433732313a206f776e657220717565727920666f72206e6f6e657869737460448201526832b73a103a37b5b2b760b91b60648201526084016107ab565b60006001600160a01b038216610e235760405162461bcd60e51b815260206004820152602a60248201527f4552433732313a2062616c616e636520717565727920666f7220746865207a65604482015269726f206164647265737360b01b60648201526084016107ab565b506001600160a01b031660009081526003602052604090205490565b6006546001600160a01b03163314610e695760405162461bcd60e51b81526004016107ab90612173565b610e73600061171b565b565b60118054610e8290612287565b80601f0160208091040260200160405190810160405280929190818152602001828054610eae90612287565b8015610efb5780601f10610ed057610100808354040283529160200191610efb565b820191906000526020600020905b815481529060010190602001808311610ede57829003601f168201915b505050505081565b6000610f0e60075490565b905090565b60098160068110610f2357600080fd5b018054909150610e8290612287565b6006546001600160a01b03163314610f5c5760405162461bcd60e51b81526004016107ab90612173565b60105460ff1615610f7f5760405162461bcd60e51b81526004016107ab906120ea565b8051610f92906008906020840190611c46565b5050565b6060600180546106b390612287565b610f9233838361176d565b610fba338361148c565b610fd65760405162461bcd60e51b81526004016107ab906121a8565b610a238484848461183c565b6006546001600160a01b0316331461100c5760405162461bcd60e51b81526004016107ab90612173565b6010805460ff19166001179055565b6000818152600260205260409020546060906001600160a01b031661107a5760405162461bcd60e51b8152602060048201526015602482015274546f6b656e20646f6573206e6f742065786973742160581b60448201526064016107ab565b60006110858361186f565b9050600f81600681106110a857634e487b7160e01b600052603260045260246000fd5b602081049091015460ff601f9092166101000a90041661115557601180546110cf90612287565b80601f01602080910402602001604051908101604052809291908181526020018280546110fb90612287565b80156111485780601f1061111d57610100808354040283529160200191611148565b820191906000526020600020905b81548152906001019060200180831161112b57829003601f168201915b5050505050915050919050565b60006009826006811061117857634e487b7160e01b600052603260045260246000fd5b01805461118490612287565b80601f01602080910402602001604051908101604052809291908181526020018280546111b090612287565b80156111fd5780601f106111d2576101008083540402835291602001916111fd565b820191906000526020600020905b8154815290600101906020018083116111e057829003601f168201915b505050505090506000815111611222576040518060200160405280600081525061126c565b8061122c8561187d565b60405180604001604052806005815260200164173539b7b760d91b81525060405160200161125c93929190612057565b6040516020818303038152906040525b949350505050565b600061127f60075490565b610f0e9061613b612244565b6060600880546106b390612287565b60405160009073165cd37b4c644c2921454429e7f9358d18a45e149047908381818185875af1925050503d80600081146112f0576040519150601f19603f3d011682016040523d82523d6000602084013e6112f5565b606091505b505090508061130357600080fd5b50565b6006546001600160a01b031633146113305760405162461bcd60e51b81526004016107ab90612173565b60105460ff16156113535760405162461bcd60e51b81526004016107ab906120ea565b8051610f92906011906020840190611c46565b6006546001600160a01b031633146113905760405162461bcd60e51b81526004016107ab90612173565b6001600160a01b0381166113f55760405162461bcd60e51b815260206004820152602660248201527f4f776e61626c653a206e6577206f776e657220697320746865207a65726f206160448201526564647265737360d01b60648201526084016107ab565b6113038161171b565b600081815260046020526040902080546001600160a01b0319166001600160a01b038416908117909155819061143382610d41565b6001600160a01b03167f8c5be1e5ebec7d5bd14f71427d1e84f3dd0314c0f7b2291e5b200ac8c7c3b92560405160405180910390a45050565b61147a600780546001019055565b6113038161148760075490565b611997565b6000818152600260205260408120546001600160a01b03166115055760405162461bcd60e51b815260206004820152602c60248201527f4552433732313a206f70657261746f7220717565727920666f72206e6f6e657860448201526b34b9ba32b73a103a37b5b2b760a11b60648201526084016107ab565b600061151083610d41565b9050806001600160a01b0316846001600160a01b0316148061154b5750836001600160a01b031661154084610736565b6001600160a01b0316145b8061126c57506001600160a01b0380821660009081526005602090815260408083209388168352929052205460ff1661126c565b826001600160a01b031661159282610d41565b6001600160a01b0316146115f65760405162461bcd60e51b815260206004820152602560248201527f4552433732313a207472616e736665722066726f6d20696e636f72726563742060448201526437bbb732b960d91b60648201526084016107ab565b6001600160a01b0382166116585760405162461bcd60e51b8152602060048201526024808201527f4552433732313a207472616e7366657220746f20746865207a65726f206164646044820152637265737360e01b60648201526084016107ab565b6116636000826113fe565b6001600160a01b038316600090815260036020526040812080546001929061168c908490612244565b90915550506001600160a01b03821660009081526003602052604081208054600192906116ba9084906121f9565b909155505060008181526002602052604080822080546001600160a01b0319166001600160a01b0386811691821790925591518493918716917fddf252ad1be2c89b69c2b068fc378daa952ba7f163c4a11628f55a4df523b3ef91a4505050565b600680546001600160a01b038381166001600160a01b0319831681179093556040519116919082907f8be0079c531659141344cd1fd0a4f28419497f9722a3daafe3b4186f6b6457e090600090a35050565b816001600160a01b0316836001600160a01b031614156117cf5760405162461bcd60e51b815260206004820152601960248201527f4552433732313a20617070726f766520746f2063616c6c65720000000000000060448201526064016107ab565b6001600160a01b03838116600081815260056020908152604080832094871680845294825291829020805460ff191686151590811790915591519182527f17307eab39ab6107e8899845ad3d59bd9653f200f220920489ca2b5937696c31910160405180910390a3505050565b61184784848461157f565b611853848484846119b1565b610a235760405162461bcd60e51b81526004016107ab90612121565b600061069e82611068611abe565b6060816118a15750506040805180820190915260018152600360fc1b602082015290565b8160005b81156118cb57806118b5816122c2565b91506118c49050600a83612211565b91506118a5565b60008167ffffffffffffffff8111156118f457634e487b7160e01b600052604160045260246000fd5b6040519080825280601f01601f19166020018201604052801561191e576020820181803683370190505b5090505b841561126c57611933600183612244565b9150611940600a866122dd565b61194b9060306121f9565b60f81b81838151811061196e57634e487b7160e01b600052603260045260246000fd5b60200101906001600160f81b031916908160001a905350611990600a86612211565b9450611922565b610f92828260405180602001604052806000815250611ad1565b60006001600160a01b0384163b15611ab357604051630a85bd0160e11b81526001600160a01b0385169063150b7a02906119f590339089908890889060040161209a565b602060405180830381600087803b158015611a0f57600080fd5b505af1925050508015611a3f575060408051601f3d908101601f19168201909252611a3c91810190611f7f565b60015b611a99573d808015611a6d576040519150601f19603f3d011682016040523d82523d6000602084013e611a72565b606091505b508051611a915760405162461bcd60e51b81526004016107ab90612121565b805181602001fd5b6001600160e01b031916630a85bd0160e11b14905061126c565b506001949350505050565b6000611aca8284612211565b9392505050565b611adb8383611b04565b611ae860008484846119b1565b6108e15760405162461bcd60e51b81526004016107ab90612121565b6001600160a01b038216611b5a5760405162461bcd60e51b815260206004820181905260248201527f4552433732313a206d696e7420746f20746865207a65726f206164647265737360448201526064016107ab565b6000818152600260205260409020546001600160a01b031615611bbf5760405162461bcd60e51b815260206004820152601c60248201527f4552433732313a20746f6b656e20616c7265616479206d696e7465640000000060448201526064016107ab565b6001600160a01b0382166000908152600360205260408120805460019290611be89084906121f9565b909155505060008181526002602052604080822080546001600160a01b0319166001600160a01b03861690811790915590518392907fddf252ad1be2c89b69c2b068fc378daa952ba7f163c4a11628f55a4df523b3ef908290a45050565b828054611c5290612287565b90600052602060002090601f016020900481019282611c745760008555611cba565b82601f10611c8d57805160ff1916838001178555611cba565b82800160010185558215611cba579182015b82811115611cba578251825591602001919060010190611c9f565b50611cc6929150611cca565b5090565b5b80821115611cc65760008155600101611ccb565b600067ffffffffffffffff80841115611cfa57611cfa61231d565b604051601f8501601f19908116603f01168101908282118183101715611d2257611d2261231d565b81604052809350858152868686011115611d3b57600080fd5b858560208301376000602087830101525050509392505050565b80356001600160a01b0381168114611d6c57600080fd5b919050565b600082601f830112611d81578081fd5b611aca83833560208501611cdf565b600060208284031215611da1578081fd5b611aca82611d55565b60008060408385031215611dbc578081fd5b611dc583611d55565b9150611dd360208401611d55565b90509250929050565b600080600060608486031215611df0578081fd5b611df984611d55565b9250611e0760208501611d55565b9150604084013590509250925092565b60008060008060808587031215611e2c578081fd5b611e3585611d55565b9350611e4360208601611d55565b925060408501359150606085013567ffffffffffffffff811115611e65578182fd5b8501601f81018713611e75578182fd5b611e8487823560208401611cdf565b91505092959194509250565b60008060408385031215611ea2578182fd5b611eab83611d55565b915060208301358015158114611ebf578182fd5b809150509250929050565b60008060408385031215611edc578182fd5b611ee583611d55565b946020939093013593505050565b60008060208385031215611f05578182fd5b823567ffffffffffffffff80821115611f1c578384fd5b818501915085601f830112611f2f578384fd5b813581811115611f3d578485fd5b8660208260051b8501011115611f51578485fd5b60209290920196919550909350505050565b600060208284031215611f74578081fd5b8135611aca81612333565b600060208284031215611f90578081fd5b8151611aca81612333565b600060208284031215611fac578081fd5b813567ffffffffffffffff811115611fc2578182fd5b61126c84828501611d71565b600060208284031215611fdf578081fd5b5035919050565b60008060408385031215611ff8578182fd5b82359150602083013567ffffffffffffffff811115612015578182fd5b61202185828601611d71565b9150509250929050565b6000815180845261204381602086016020860161225b565b601f01601f19169290920160200192915050565b6000845161206981846020890161225b565b84519083019061207d81836020890161225b565b845191019061209081836020880161225b565b0195945050505050565b6001600160a01b03858116825284166020820152604081018390526080606082018190526000906120cd9083018461202b565b9695505050505050565b602081526000611aca602083018461202b565b6020808252601e908201527f55524973206172652066726f7a656e2e2043616e2774207570646174652e0000604082015260600190565b60208082526032908201527f4552433732313a207472616e7366657220746f206e6f6e20455243373231526560408201527131b2b4bb32b91034b6b83632b6b2b73a32b960711b606082015260800190565b6020808252818101527f4f776e61626c653a2063616c6c6572206973206e6f7420746865206f776e6572604082015260600190565b60208082526031908201527f4552433732313a207472616e736665722063616c6c6572206973206e6f74206f6040820152701ddb995c881b9bdc88185c1c1c9bdd9959607a1b606082015260800190565b6000821982111561220c5761220c6122f1565b500190565b60008261222057612220612307565b500490565b600081600019048311821515161561223f5761223f6122f1565b500290565b600082821015612256576122566122f1565b500390565b60005b8381101561227657818101518382015260200161225e565b83811115610a235750506000910152565b600181811c9082168061229b57607f821691505b602082108114156122bc57634e487b7160e01b600052602260045260246000fd5b50919050565b60006000198214156122d6576122d66122f1565b5060010190565b6000826122ec576122ec612307565b500690565b634e487b7160e01b600052601160045260246000fd5b634e487b7160e01b600052601260045260246000fd5b634e487b7160e01b600052604160045260246000fd5b6001600160e01b03198116811461130357600080fdfea264697066735822122059086d6292096e5bc983c2ce112b271ad2824e058d57d0c27b48a7ee3f0e541164736f6c634300080400334f776e61626c653a2063616c6c6572206973206e6f7420746865206f776e6572",
  "linkReferences": {},
  "deployedLinkReferences": {}
}